:020000040800F2
:1000000000500020E902000800000000000000008D
:100010001904000819040008190400080000000071
:1000200000000000000000000000000019040008AB
:100030001904000800000000190400081904000851
:10004000190400081904000819040008190400081C
:10005000190400081904000819040008190400080C
:1000600019040008190400081904000819040008FC
:1000700019040008190400081904000819040008EC
:1000800019040008190400085D020008190400089A
:1000900019040008190400081904000819040008CC
:1000A00019040008190400081904000819040008BC
:1000B00019040008190400081904000819040008AC
:1000C000190400081904000819040008190400089C
:1000D0001904000885020008190400081904000822
:1000E000190400081904000819040008190400087C
:1000F000190400081904000819040008190400086C
:10010000190400081904000819040008190400085B
:10011000190400081904000819040008190400084B
:10012000190400081904000819040008190400083B
:1001300080B483B000AF0346FB71084997F90730DC
:100140005B09FA7902F01F02012000FA02F241F87D
:1001500023200C37BD4680BC704700BF00E100E0A3
:1001600080B500AF264B44F20D629A61254B264ABA
:100170005A60264B264A1A60264B42F22C029A817C
:10018000244B41F2C9621A81234B43F6A1221A6023
:10019000214B224ADA60204B214A9A601E4B4FF4D1
:1001A000FA725A601F4B01229A601F4B01229A601B
:1001B0001C4B08225A631C4B08225A63194B1B4ADA
:1001C0005A60194B1A4A5A60164A174940F2FF738F
:1001D0004B625362142000F031F8124B154A9A60BA
:1001E000114B144A9A60142000F028F80D4B124A63
:1001F0009A602520FFF79CFF1220FFF799FFFEE78A
:100200000010024000080140B4444444000C014086
:1002100040444444003801400800024000000020EF
:100220004C24014000240140002801404000870088
:100230004000800007011E0003015E0080B483B00F
:1002400000AF786002E07B68013B7B607B68002B3D
:10025000F9D10C37BD4680BC7047FFFF80B400AFBA
:10026000064A074940F6FF734B625362034A04494A
:1002700000230B601360BD4680BC70470024014022
:100280000028014080B483B000AF154B1B889BB29F
:1002900003F02003002B1BD0114B9B889BB2DBB2D9
:1002A000742B15D10023FB710FE00D4AFB790D492A
:1002B000CB5C9BB293800A4B1B889BB203F08003FC
:1002C000002BF8D0FB790133FB71FB79022BECD9C1
:1002D000034B00221A800C37BD4680BC704700BF1C
:1002E0000038014020040008684620F007018D46D0
:1002F00081B583B000AF3D4B7B603D4B3B607A687E
:100300003B689A4208D10BE03B681A1D3A607A6854
:10031000111D796012681A603B68364A9342F3D324
:10032000354B3B6004E03B681A1D3A6000221A60BE
:100330003B68324A9342F6D3314A324B23F068434A
:1003400023F07F0343F0006393602F4A2E4B1B681A
:1003500043F0010313602C492B4B5A682B4B13407D
:100360004B60294A284B1B6823F0847323F48033A5
:100370001360254A244B1B6823F480231360224B0F
:100380004FF41F029A60204A1F4B1B6843F48033CE
:1003900013601D4B1B6803F40033002BF9D01C4B7A
:1003A00012221A60184B1B4A5A60174A164B1B68D8
:1003B00043F080731360144B1B6803F00073002B31
:1003C000F9D0114A104B5B6843F0020353600E4BA7
:1003D0005B6803F00C03082BF9D1FFF7C1FE0C3763
:1003E000BD46BDE881408546704700BF2404000833
:1003F000000000200000002000000020D0070020A6
:1004000000ED00E000000000001002400000FFF8D6
:10041000002002400044150080B400AFFEE7FFFF5B
:040420006F6B21FFDE
:0400000508000000EF
:00000001FF
